:1000000045C0000061C000005FC000005DC000008E
:100010005BC0000059C0000057C0000055C0000080
:1000200053C0000051C000004FC000004DC0000090
:100030004BC00000FCC3000047C0000045C00000EA
:1000400043C0000041C000003FC000003DC00000B0
:100050003BC0000039C0000037C0000035C00000C0
:1000600033C0000031C000002FC000002DC00000D0
:100070002BC0000029C0000027C0000025C00000E0
:1000800023C0000021C000001FC0000011241FBEBB
:10009000CFEFD0E4DEBFCDBF11E0A0E0B1E0E4E1FE
:1000A000F3E100E00BBF02C007900D92AE3BB10739
:1000B000D9F722E0AEEBB1E001C01D92A132B20748
:1000C000E1F792D50C9488099BCF9C018130910572
:1000D00049F08230910559F0009709F084C021E081
:1000E00030E08CC08091C001811180C087C08091B8
:1000F000C001882309F47DC0E3E4F1E085E591E0E7
:1001000049E430E22081293421F4DF0111974C9336
:1001100030833196E817F907A9F7EFE2F1E081E4BF
:1001200091E049E430E22081293421F4DF01119784
:100130004C9330833196E817F907A9F7EBE1F1E02A
:100140008DE291E049E430E22081293421F4DF019D
:1001500011974C9330833196E817F907A9F7E7E038
:10016000F1E089E191E049E430E22081293421F491
:10017000DF0111974C9330833196E817F907A9F7FF
:1001800080914201893441F48091BE018150809375
:10019000BE0180E28093420180912E01893441F4B6
:1001A0008091BE0181508093BE0180E280932E0138
:1001B00080911A01893441F48091BE01815080936D
:1001C000BE0180E280931A01809106018934A1F476
:1001D0008091BE0181508093BE0180E28093060130
:1001E00020E030E00BC020E030E008C022E030E04A
:1001F00005C020E030E002C020E030E0822F932FE5
:100200000895009731F00CF489C003970CF086C074
:1002100003C021E030E090C08091C001882309F440
:1002200080C0809120028434D1F480910401813017
:1002300021F48DE28093420141C0823021F48DE2AD
:1002400080932E013BC0833021F48DE280931A010C
:1002500035C0843099F58DE2809306012FC08A3233
:1002600069F580910401823008F45EC0823051F457
:1002700080E280932D018EE38093410181E08093A1
:10028000040117C0833051F480E2809319018EE39A
:1002900080932D0182E0809304010BC0843049F4E7
:1002A00080E2809305018EE38093190183E08093BF
:1002B00004011092200220E030E03EC08091200234
:1002C0008033A9F5809104018430A0F5813051F488
:1002D00080E2809341018EE380932D0182E0809340
:1002E000040117C0823051F480E280932D018EE327
:1002F0008093190183E0809304010BC0833049F49B
:1003000080E2809319018EE38093050184E080935D
:1003100004011092200220E030E00EC020E030E026
:100320000BC020E030E008C020E030E005C020E055
:1003300030E002C020E030E0822F932F08959C012E
:100340008130910541F08230910551F00097D9F547
:1003500021E030E043C08091C001811137C03EC030
:100360008091BF018130A9F58091BE018931A0F54E
:100370008AD7079683709078992324F401978C6F1D
:100380009F6F01969091BE019F5F9093BE01811176
:1003900004C099E4909353010CC0813021F489E4A6
:1003A00080933F010BC0823021F489E480932B01BC
:1003B00005C0833019F489E4809317011092BF01BE
:1003C00020E030E00BC020E030E008C022E030E068
:1003D00005C020E030E002C020E030E0822F932F03
:1003E0000895CF93DF93EC018130910541F0823085
:1003F000910551F00097B1F4C1E0D0E01BC08091AD
:10040000C0018130B9F411C08091C001813081F404
:100410003AD767E070E0A2D6892B61F481E080933F
:10042000BF0108C0C0E0D0E005C0C2E0D0E002C01B
:10043000C1E0D0E08C2F9D2FDF91CF910895149AC9
:1004400000C014980895CF93DF93D82F662311F03E
:10045000129A01C01298139884B18F6084B9C5B103
:10046000C07F8D2F82958F708C2B85B9E8DFDF7070
:10047000DC2BD5B9E4DFCF60C5B9DF91CF9108950A
:10048000882311F0129A01C01298139A84B1807FC8
:1004900084B9149A00C093B1149800C0149A00C093
:1004A00083B114989295907F8F70892B089580E086
:1004B000E7DF8823E4F300C080E0E2CFCF93C82FCA
:1004C000F6DF60E08C2FBFDFCF910895611102C08D
:1004D0008058F4CF613011F48054F0CF623011F4C1
:1004E0008C56ECCF8C52EACF81E0E8CFCF93C82F67
:1004F000DEDFCA3069F4803428F08451803420F47F
:1005000084E503C080E401C080E08058D7DF03C0E9
:1005100061E08C2F98DFCF910895EF92FF920F93B7
:100520001F93CF93DF938C018130910551F082307E
:10053000910569F0009709F054C0D6DF01E010E0A2
:1005400055C08091C001813009F050C04DC08091EC
:10055000C001882309F441C060E080E0B7DFC1E456
:10056000D1E00F2EF5E5EF2EF1E0FF2EF02D899171
:10057000BDDFCE15DF05D9F761E080E0A7DFCDE272
:10058000D1E00F2EF1E4EF2EF1E0FF2EF02D899156
:10059000ADDFCE15DF05D9F762E080E097DFC9E176
:1005A000D1E00F2EFDE2EF2EF1E0FF2EF02D89912C
:1005B0009DDFCE15DF05D9F763E080E087DFC5E07A
:1005C000D1E00F2EF9E1EF2EF1E0FF2EF02D899111
:1005D0008DDFCE15DF05D9F709C086DF01E010E019
:1005E00005C000E010E002C002E010E0802F912F73
:1005F000DF91CF911F910F91FF90EF900895CF93CE
:10060000C82F84B18F6084B90A9A0B9A0C9A8FEC28
:1006100097E00197F1F700C00000299A289A0FDFB0
:1006200080E792E00197F1F700C0000008DF9AE050
:100630009A95F1F700C003DF8AE08A95F1F700C0D0
:100640002898FDDE9AE09A95F1F700C08CE236DF3B
:1006500089E034DF88E232DF88E030DF45DF86E0A2
:100660002DDF8C2F2BDFCF910895181619065CF023
:100670000895000021503109E1F74F5F5F4F48179F
:10068000590729F4089540E050E067E073E09B01CA
:10069000F0CF109A8BB9119A0000119881E090E088
:1006A000E4CF10988BB9119A0000119882E090E085
:1006B000DCCF813110F48158F4CF8155F2CFDF9235
:1006C000EF92FF920F931F93CF93DF9381309105A9
:1006D00041F01CF4892BC1F057C004970CF054C0B2
:1006E0004EC080912002843479F41092200281E07F
:1006F0008093C0010F2EFAE8EF2EF1E0FF2EF02DCF
:100700000AE911E0E7011AC00F2EFAE9EF2EF1E035
:10071000FF2EF02D0AEA11E0E701D9908C2F8E19F7
:10072000C8DF8D2DB6DF8091C6018F5F8093C60133
:10073000C017D10791F721E030E028C0D9908C2F65
:100740008E19B7DF8D2DA5DF8091C6018F5F809355
:10075000C601C017D10791F782E1ABDF81E399DFD2
:1007600083E1A7DF80E395DF84E1A3DF80E391DF0E
:1007700089E19FDF80E38DDF23E030E007C089E17E
:1007800098DF22E030E002C020E030E0822F932F9B
:10079000DF91CF911F910F91FF90EF90DF9008951F
:1007A00084E690E062DF88E37CDF86E07ADF8FE03A
:1007B00078DF81E076DF8AE090E057CF6093AA018E
:1007C0007093AB018093AC019093AD016093C10134
:1007D0007093C2018093C3019093C40108958BE08C
:1007E000809381008DE790E090938900809388004A
:1007F00082E080936F0010928500109284008091B7
:10080000AA019091AB01A091AC01B091AD01809390
:10081000C1019093C201A093C301B093C4018FB7EB
:1008200080688FBF089581E08093C50108951F926D
:100830000F920FB60F9211240BB60F922F933F9386
:100840004F935F936F937F938F939F93AF93BF93D8
:10085000EF93FF938091C1019091C201A091C301D8
:10086000B091C4010197A109B1098093C10190938E
:10087000C201A093C301B093C401892B8A2B8B2B97
:1008800089F4D1DF8091AA019091AB01A091AC01D4
:10089000B091AD018093C1019093C201A093C301B7
:1008A000B093C401FF91EF91BF91AF919F918F9150
:1008B0007F916F915F914F913F912F910F900BBE60
:1008C0000F900FBE0F901F90189590E002C0959565
:1008D00087956A95E2F7817008958FEE88B90000D8
:1008E00086B160E0F2DF882309F45EC086B161E082
:1008F000ECDF882309F45AC086B162E0E6DF882382
:1009000009F456C086B163E0E0DF882309F452C0E1
:100910008FED88B9000086B160E0D7DF882309F445
:100920004BC086B161E0D1DF882309F447C086B1AE
:1009300062E0CBDF882309F443C086B163E0C5DF02
:10094000882309F43FC08FEB88B9000086B160E0CE
:10095000BCDF882309F438C086B161E0B6DF8823A4
:10096000A9F186B162E0B1DF882391F186B163E03D
:10097000ACDF882379F18FE788B9000086B160E0A9
:10098000A4DF882349F186B161E09FDF882331F13C
:1009900086B162E09ADF882319F186B163E095DFC2
:1009A000811120C084E4089581E3089584E30895CB
:1009B00087E308958AE2089582E3089585E3089520
:1009C00088E3089580E3089583E3089586E3089516
:1009D00089E3089583E2089581E4089582E4089507
:1009E00083E4089580E00895CF93DF93EC010097AE
:1009F00021F08130910551F403C0C1E0D0E008C07E
:100A00006CDF882329F08093200202C0C0E0D0E090
:100A10008C2F9D2FDF91CF910895CF92DF92EF928F
:100A2000FF926B017C0120E030E0A9011ED2811110
:100A300006C0E1E9F0E080818870808305C0E1E9CB
:100A4000F0E080818360808328E539E344E75FE359
:100A5000C701B6010AD288233CF48FEF9FEF909331
:100A600099008093980023C020E034E244EF56E4DC
:100A7000C701B6010CD318162CF4109299001092ED
:100A8000980015C020E030E040E053E4C701B60113
:100A900002D39B01AC0160E074E284EF9AE4E9D1F7
:100AA00050D2615071097093990060939800109230
:100AB000950010929400FF90EF90DF90CF900895F2
:100AC0001F93CF93DF93EC01009729F081309105BC
:100AD00009F078C003C0C1E0D0E076C08091C701C2
:100AE000853110F01092C7011091C701E12FF0E09D
:100AF000EB5AFE4F80818434E1F040F4823409F4F3
:100B00004AC068F4813409F059C03BC0863429F1E9
:100B1000D0F0873461F1833609F050C046C060914F
:100B20006A0170916B0180916C0190916D0175DF8C
:100B300045C060916E0170916F018091700190913C
:100B400071016BDF3BC06091720170917301809104
:100B500074019091750161DF31C0609176017091EF
:100B60007701809178019091790157DF27C06091DA
:100B70007A0170917B0180917C0190917D014DDF24
:100B80001DC060917E0170917F01809180019091E4
:100B9000810143DF13C060918201709183018091D4
:100BA00084019091850139DF09C0609186017091BF
:100BB000870180918801909189012FDF1F5F109339
:100BC000C70102C0C0E0D0E08C2F9D2FDF91CF91F4
:100BD0001F91089580E4809390008BE080939100B2
:100BE00060E070E0CB0119CFCF93DF93CDB7DEB7D4
:100BF00060970FB6F894DEBF0FBECDBFFF24FA9406
:100C0000F1B812B8F4B815B880EF87B98FE088B999
:100C1000FAB81BB8DFDF80E1EEEAF1E0DE01119601
:100C200001900D928A95E1F7F092C80182E090E080
:100C3000A0E0B0E08093C9019093CA01A093CB01DA
:100C4000B093CC018093CD019093CE01A093CF01BE
:100C5000B093D0012FE533E03093D2012093D1013E
:100C6000F092D3018093D4019093D501A093D60143
:100C7000B093D7018093D8019093D901A093DA0162
:100C8000B093DB0124EF34E03093DD012093DC01ED
:100C9000F092DE0144E050E060E070E04093DF015C
:100CA0005093E0016093E1017093E2014093E3010E
:100CB0005093E4016093E5017093E60120E635E08E
:100CC0003093E8012093E701F092E9018093EA0173
:100CD0009093EB01A093EC01B093ED018093EE01B2
:100CE0009093EF01A093F001B093F10121EF31E077
:100CF0003093F3012093F201F092F4018093F50117
:100D00009093F601A093F701B093F8018093F90155
:100D10009093FA01A093FB01B093FC012FE931E01D
:100D20003093FE012093FD01F092FF0101E010E0FD
:100D300020E030E0009300021093010220930202B1
:100D400030930302009304021093050220930602DD
:100D5000309307022DE832E0309309022093080215
:100D6000F0920A0280930B0290930C02A0930D0262
:100D7000B0930E0280930F0290931002A093110281
:100D8000B093120285E690E09093140280931302D0
:100D9000F0921502409316025093170260931802C6
:100DA0007093190240931A0250931B0260931C0225
:100DB00070931D0281E091E090931F0280931E02C8
:100DC000EFDC8CE01CDC90DB62E370E080E090E024
:100DD000F5DC05DD00E010E0C12CD12C3BC0F801B2
:100DE000EE0FFF1F81E090E08C0F9D1FE80FF91FB1
:100DF000E080F180D70115964D915D916D917C91C8
:100E0000189711968D919D910D90BC91A02D48172A
:100E100059076A077B0781F4F70180810184F28515
:100E2000E02D992787FD90950995D7018C93F701BF
:100E30001582168217821086F70185819681A78117
:100E4000B0850196A11DB11D85839683A783B087C8
:100E50000F5F1F4F0830110510F28091C5018823E4
:100E6000E1F31092C5018601F5CF9CD008F481E032
:100E700008950CD0D2C0CAD040F0C1D030F021F4D7
:100E80005F3F19F0B3C05111FCC0B6C0D7D098F382
:100E90009923C9F35523B1F3951B550BBB27AA27FB
:100EA00062177307840738F09F5F5F4F220F331F6D
:100EB000441FAA1FA9F333D00E2E3AF0E0E830D039
:100EC00091505040E695001CCAF729D0FE2F27D03C
:100ED000660F771F881FBB1F261737074807AB070A
:100EE000B0E809F0BB0B802DBF01FF2793585F4F7F
:100EF0002AF09E3F510568F079C0C3C05F3FECF314
:100F0000983EDCF3869577956795B795F7959F5F43
:100F1000C9F7880F911D9695879597F90895E1E097
:100F2000660F771F881FBB1F621773078407BA07F6
:100F300020F0621B730B840BBA0BEE1F88F7E09551
:100F4000089504D06894B1119CC008957FD088F0B2
:100F50009F5790F0B92F9927B751A0F0D1F0660FA5
:100F6000771F881F991F1AF0BA95C9F712C0B130C0
:100F700081F086D0B1E0089583C0672F782F88274D
:100F8000B85F39F0B93FCCF3869577956795B395FF
:100F9000D9F73EF490958095709561957F4F8F4F6E
:100FA0009F4F0895990F0008550FAA0BE0E8FEEF38
:100FB00016161706E807F907C0F012161306E4071D
:100FC000F50798F0621B730B840B950B39F40A2616
:100FD00061F0232B242B252B21F408950A2609F4F4
:100FE000A140A6958FEF811D811D089597F99F67F8
:100FF00080E870E060E008959FEF80EC08950024A1
:101000000A941616170618060906089500240A946D
:1010100012161306140605060895092E0394000CF3
:1010200011F4882352F0BB0F40F4BF2B11F460FF82
:1010300004C06F5F7F4F8F4F9F4F089557FD9058AB
:10104000440F551F59F05F3F71F04795880F97FB8C
:10105000991F61F09F3F79F0879508951216130646
:101060001406551FF2CF4695F1DF08C01616170675
:101070001806991FF1CF86957105610508940895AA
:10108000E894BB2766277727CB0197F908958ADF75
:1010900008F48FEF08950BD0C0CFB1DF28F0B6DF92
:1010A00018F0952309F0A2CFA7CF1124EACFC6DF0D
:1010B000A0F3959FD1F3950F50E0551F629FF0016B
:1010C000729FBB27F00DB11D639FAA27F00DB11DC4
:1010D000AA1F649F6627B00DA11D661F829F22274D
:1010E000B00DA11D621F739FB00DA11D621F839FD4
:1010F000A00D611D221F749F3327A00D611D231FAA
:10110000849F600D211D822F762F6A2F11249F57F7
:1011100050408AF0E1F088234AF0EE0FFF1FBB1F1A
:10112000661F771F881F91505040A9F79E3F5105B9
:1011300070F05CCFA6CF5F3FECF3983EDCF3869572
:1011400077956795B795F795E7959F5FC1F7FE2B64
:10115000880F911D9695879597F9089597FB072E0F
:1011600016F4009406D077FD08D02DD007FC05D0EA
:101170003EF4909581959F4F0895709561957F4FAE
:101180000895A1E21A2EAA1BBB1BFD010DC0AA1FC8
:10119000BB1FEE1FFF1FA217B307E407F50720F0E0
:1011A000A21BB30BE40BF50B661F771F881F991F5B
:1011B0001A9469F760957095809590959B01AC01A4
:1011C000BD01CF010895AA1BBB1B51E107C0AA1F97
:1011D000BB1FA617B70710F0A61BB70B881F991FD8
:1011E0005A95A9F780959095BC01CD0108958F92ED
:1011F0009F92AF92BF92CF92DF92EF92FF92CF93E6
:10120000DF93EC01688179818A819B816115710589
:101210008105910521F464E279ED8BE597E02DE1FC
:1012200033EF41E050E03DD049015A019B01AC0150
:10123000A7EAB1E451D06B017C01ACEEB4EFA5019B
:10124000940156D0C60ED71EE81EF91EF7FE06C042
:1012500081E0C81AD108E10880E8F80AC882D9827A
:10126000EA82FB82E894D7F8EE24FF24C601DF91DE
:10127000CF91FF90EF90DF90CF90BF90AF909F9075
:101280008F900895B4CF80E091E0B1CFA0E0B0E0BE
:101290008093000190930101A0930201B093030198
:1012A0000895052E97FB16F4009406D057FD0CD038
:1012B00068DF07FC09D07EF4909580957095619564
:1012C0007F4F8F4F9F4F08955095409530952195B2
:1012D0003F4F4F4F5F4F08950FD0A59F900DB49F84
:1012E000900DA49F800D911D11240895B7FFF4CF98
:1012F000F3DF821B930B0895A29FB001B39FC0013F
:10130000A39F01D0B29F700D811D1124911D0895DE
:04131000F894FFCF7F
:101314000100000002202020202020202020202066
:1013240020202020202020202020202020202020B9
:10133400202020202020202020202020203E20208B
:101344002020202020202020202020202020202099
:101354002020202020202020202020202020202089
:1013640020202020204363474441464142424746CF
:1013740045634241474141414546A4D082437BD421
:101384009243A4D0A443719DAE430000C443000023
:10139400DC43A4F0F64300D002442A484947482AD3
:1013A4002A2A43555252454E542A505245535320EB
:1013B4004420544F20535441525401000000C801AA
:0E13C400D301DE01E901F401FF010A02150266
:00000001FF
